{
  "contractName": "Casino",
  "abi": [
    {
      "constant": true,
      "inputs": [],
      "name": "numberOfBets",
      "outputs": [
        {
          "name": "",
          "type": "uint256"
        }
      ],
      "payable": false,
      "stateMutability": "view",
      "type": "function"
    },
    {
      "constant": true,
      "inputs": [
        {
          "name": "",
          "type": "address"
        }
      ],
      "name": "playerInfo",
      "outputs": [
        {
          "name": "amountBet",
          "type": "uint256"
        },
        {
          "name": "numberSelected",
          "type": "uint256"
        }
      ],
      "payable": false,
      "stateMutability": "view",
      "type": "function"
    },
    {
      "constant": true,
      "inputs": [],
      "name": "owner",
      "outputs": [
        {
          "name": "",
          "type": "address"
        }
      ],
      "payable": false,
      "stateMutability": "view",
      "type": "function"
    },
    {
      "constant": true,
      "inputs": [],
      "name": "minimumBet",
      "outputs": [
        {
          "name": "",
          "type": "uint256"
        }
      ],
      "payable": false,
      "stateMutability": "view",
      "type": "function"
    },
    {
      "constant": true,
      "inputs": [],
      "name": "maxAmountOfBets",
      "outputs": [
        {
          "name": "",
          "type": "uint256"
        }
      ],
      "payable": false,
      "stateMutability": "view",
      "type": "function"
    },
    {
      "constant": true,
      "inputs": [
        {
          "name": "",
          "type": "uint256"
        }
      ],
      "name": "players",
      "outputs": [
        {
          "name": "",
          "type": "address"
        }
      ],
      "payable": false,
      "stateMutability": "view",
      "type": "function"
    },
    {
      "constant": true,
      "inputs": [],
      "name": "totalBet",
      "outputs": [
        {
          "name": "",
          "type": "uint256"
        }
      ],
      "payable": false,
      "stateMutability": "view",
      "type": "function"
    },
    {
      "inputs": [
        {
          "name": "_minimumBet",
          "type": "uint256"
        }
      ],
      "payable": false,
      "stateMutability": "nonpayable",
      "type": "constructor"
    },
    {
      "payable": true,
      "stateMutability": "payable",
      "type": "fallback"
    },
    {
      "constant": false,
      "inputs": [],
      "name": "kill",
      "outputs": [],
      "payable": false,
      "stateMutability": "nonpayable",
      "type": "function"
    },
    {
      "constant": true,
      "inputs": [
        {
          "name": "player",
          "type": "address"
        }
      ],
      "name": "checkPlayerExists",
      "outputs": [
        {
          "name": "",
          "type": "bool"
        }
      ],
      "payable": false,
      "stateMutability": "view",
      "type": "function"
    },
    {
      "constant": false,
      "inputs": [
        {
          "name": "numberSelected",
          "type": "uint256"
        }
      ],
      "name": "bet",
      "outputs": [],
      "payable": true,
      "stateMutability": "payable",
      "type": "function"
    },
    {
      "constant": false,
      "inputs": [],
      "name": "generateNumberWinner",
      "outputs": [],
      "payable": false,
      "stateMutability": "nonpayable",
      "type": "function"
    },
    {
      "constant": false,
      "inputs": [
        {
          "name": "numberWinner",
          "type": "uint256"
        }
      ],
      "name": "distributePrizes",
      "outputs": [],
      "payable": false,
      "stateMutability": "nonpayable",
      "type": "function"
    }
  ],
  "bytecode": "0x60606040526064600455341561001457600080fd5b604051602080610a2383398101604052808051906020019091905050336000806101000a81548173ffffffffffffffffffffffffffffffffffffffff021916908373ffffffffffffffffffffffffffffffffffffffff16021790555060008114151561008257806001819055505b50610991806100926000396000f3006060604052600436106100ba576000357c0100000000000000000000000000000000000000000000000000000000900463ffffffff1680630a50e361146100bc5780632ca8c6d3146100d15780634081d916146100fa57806341c0e1b51461014b5780634b114691146101605780636ca3fc3b146101b45780637365870b146101d75780638da5cb5b146101ef578063c38a8afd14610244578063e08a96cd1461026d578063f71d96cb14610296578063fe5e1853146102f9575b005b34156100c757600080fd5b6100cf610322565b005b34156100dc57600080fd5b6100e4610342565b6040518082815260200191505060405180910390f35b341561010557600080fd5b610131600480803573ffffffffffffffffffffffffffffffffffffffff16906020019091905050610348565b604051808215151515815260200191505060405180910390f35b341561015657600080fd5b61015e6103ec565b005b341561016b57600080fd5b610197600480803573ffffffffffffffffffffffffffffffffffffffff1690602001909190505061047d565b604051808381526020018281526020019250505060405180910390f35b34156101bf57600080fd5b6101d560048080359060200190919050506104a1565b005b6101ed60048080359060200190919050506106da565b005b34156101fa57600080fd5b610202610833565b604051808273ffffffffffffffffffffffffffffffffffffffff1673ffffffffffffffffffffffffffffffffffffffff16815260200191505060405180910390f35b341561024f57600080fd5b610257610858565b6040518082815260200191505060405180910390f35b341561027857600080fd5b61028061085e565b6040518082815260200191505060405180910390f35b34156102a157600080fd5b6102b76004808035906020019091905050610864565b604051808273ffffffffffffffffffffffffffffffffffffffff1673ffffffffffffffffffffffffffffffffffffffff16815260200191505060405180910390f35b341561030457600080fd5b61030c6108a3565b6040518082815260200191505060405180910390f35b60006001600a4381151561033257fe5b0601905061033f816104a1565b50565b60035481565b600080600090505b6005805490508110156103e1578273ffffffffffffffffffffffffffffffffffffffff1660058281548110151561038357fe5b906000526020600020900160009054906101000a900473ffffffffffffffffffffffffffffffffffffffff1673ffffffffffffffffffffffffffffffffffffffff1614156103d457600191506103e6565b8080600101915050610350565b600091505b50919050565b6000809054906101000a900473ffffffffffffffffffffffffffffffffffffffff1673ffffffffffffffffffffffffffffffffffffffff163373ffffffffffffffffffffffffffffffffffffffff16141561047b576000809054906101000a900473ffffffffffffffffffffffffffffffffffffffff1673ffffffffffffffffffffffffffffffffffffffff16ff5b565b60066020528060005260406000206000915090508060000154908060010154905082565b6104a96108a9565b6000806000806000809450600093505b6005805490508410156105fb576005848154811015156104d557fe5b906000526020600020900160009054906101000a900473ffffffffffffffffffffffffffffffffffffffff16925086600660008573ffffffffffffffffffffffffffffffffffffffff1673ffffffffffffffffffffffffffffffffffffffff16815260200190815260200160002060010154141561059c5782868660648110151561055c57fe5b602002019073ffffffffffffffffffffffffffffffffffffffff16908173ffffffffffffffffffffffffffffffffffffffff168152505084806001019550505b600660008473ffffffffffffffffffffffffffffffffffffffff1673ffffffffffffffffffffffffffffffffffffffff1681526020019081526020016000206000808201600090556001820160009055505083806001019450506104b9565b600060058161060a91906108e8565b50606460025481151561061957fe5b049150600090505b848110156106d157600073ffffffffffffffffffffffffffffffffffffffff16868260648110151561064f57fe5b602002015173ffffffffffffffffffffffffffffffffffffffff161415156106c457858160648110151561067f57fe5b602002015173ffffffffffffffffffffffffffffffffffffffff166108fc839081150290604051600060405180830381858888f1935050505015156106c357600080fd5b5b8080600101915050610621565b50505050505050565b6106e333610348565b1515156106ef57600080fd5b600181101580156107015750600a8111155b151561070c57600080fd5b600154341015151561071d57600080fd5b34600660003373ffffffffffffffffffffffffffffffffffffffff1673ffffffffffffffffffffffffffffffffffffffff1681526020019081526020016000206000018190555080600660003373ffffffffffffffffffffffffffffffffffffffff1673ffffffffffffffffffffffffffffffffffffffff16815260200190815260200160002060010181905550600360008154809291906001019190505550600580548060010182816107d19190610914565b9160005260206000209001600033909190916101000a81548173ffffffffffffffffffffffffffffffffffffffff021916908373ffffffffffffffffffffffffffffffffffffffff160217905550503460026000828254019250508190555050565b6000809054906101000a900473ffffffffffffffffffffffffffffffffffffffff1681565b60015481565b60045481565b60058181548110151561087357fe5b90600052602060002090016000915054906101000a900473ffffffffffffffffffffffffffffffffffffffff1681565b60025481565b610c80604051908101604052806064905b600073ffffffffffffffffffffffffffffffffffffffff168152602001906001900390816108ba5790505090565b81548183558181151161090f5781836000526020600020918201910161090e9190610940565b5b505050565b81548183558181151161093b5781836000526020600020918201910161093a9190610940565b5b505050565b61096291905b8082111561095e576000816000905550600101610946565b5090565b905600a165627a7a72305820fb3c4de772720458ff3f16c06829c1021b67dd20a24ab3197e9abc2b64d583740029",
  "source": "pragma solidity 0.4.19;\r\ncontract Casino {\r\n   address public owner;\r\n   uint256 public minimumBet;\r\n   uint256 public totalBet;\r\n   uint256 public numberOfBets;\r\n   uint256 public maxAmountOfBets = 100;\r\n   address[] public players;\r\n\r\n   struct Player {\r\n      uint256 amountBet;\r\n      uint256 numberSelected;\r\n   }\r\n\r\n   // The address of the player and => the user info\r\n   mapping(address => Player) public playerInfo;\r\n\r\n   function() public payable {}\r\n\r\n   function Casino(uint256 _minimumBet) public {\r\n      owner = msg.sender;\r\n      if(_minimumBet != 0 ) minimumBet = _minimumBet;\r\n   }\r\n\r\n   function kill() public {\r\n      if(msg.sender == owner) selfdestruct(owner);\r\n   }\r\n\r\n   function checkPlayerExists(address player) public constant returns(bool){\r\n      for(uint256 i = 0; i < players.length; i++){\r\n         if(players[i] == player) return true;\r\n      }\r\n      return false;\r\n   }\r\n\r\n   // To bet for a number between 1 and 10 both inclusive\r\n   function bet(uint256 numberSelected) public payable {\r\n      require(!checkPlayerExists(msg.sender));\r\n      require(numberSelected >= 1 && numberSelected <= 10);\r\n      require(msg.value >= minimumBet);\r\n\r\n      playerInfo[msg.sender].amountBet = msg.value;\r\n      playerInfo[msg.sender].numberSelected = numberSelected;\r\n      numberOfBets++;\r\n      players.push(msg.sender);\r\n      totalBet += msg.value;\r\n   }\r\n\r\n   // Generates a number between 1 and 10 that will be the winner\r\n   function generateNumberWinner() public {\r\n      uint256 numberGenerated = block.number % 10 + 1; // This isn't secure\r\n      distributePrizes(numberGenerated);\r\n   }\r\n\r\n   // Sends the corresponding ether to each winner depending on the total bets\r\n   function distributePrizes(uint256 numberWinner) public {\r\n      address[100] memory winners; // We have to create a temporary in memory array with fixed size\r\n      uint256 count = 0; // This is the count for the array of winners\r\n\r\n      for(uint256 i = 0; i < players.length; i++){\r\n         address playerAddress = players[i];\r\n         if(playerInfo[playerAddress].numberSelected == numberWinner){\r\n            winners[count] = playerAddress;\r\n            count++;\r\n         }\r\n         delete playerInfo[playerAddress]; // Delete all the players\r\n      }\r\n\r\n      players.length = 0; // Delete all the players array\r\n\r\n      uint256 winnerEtherAmount = totalBet / winners.length; // How much each winner gets\r\n\r\n      for(uint256 j = 0; j < count; j++){\r\n         if(winners[j] != address(0)) // Check that the address in this fixed array is not empty\r\n         winners[j].transfer(winnerEtherAmount);\r\n      }\r\n   }\r\n}\r\n",
  "sourcePath": "C:\\Users\\mubok\\dApp\\contracts\\Casino.sol",
  "compiler": {
    "name": "solc",
    "version": "0.4.19+commit.c4cbbb05.Emscripten.clang"
  },
  "schemaVersion": "2.0.0",
  "updatedAt": "2018-03-07T03:33:38.631Z"
}